{
  "contractName": "LetterOfCredit",
  "abi": [
    {
      "constant": true,
      "inputs": [
        {
          "name": "",
          "type": "address"
        }
      ],
      "name": "balances",
      "outputs": [
        {
          "name": "",
          "type": "uint256"
        }
      ],
      "payable": false,
      "stateMutability": "view",
      "type": "function"
    },
    {
      "constant": true,
      "inputs": [
        {
          "name": "",
          "type": "address"
        },
        {
          "name": "",
          "type": "address"
        }
      ],
      "name": "supplierState",
      "outputs": [
        {
          "name": "dutyFulfilled",
          "type": "bool"
        },
        {
          "name": "treatyPrice",
          "type": "uint256"
        }
      ],
      "payable": false,
      "stateMutability": "view",
      "type": "function"
    },
    {
      "inputs": [
        {
          "name": "feePercent",
          "type": "uint256"
        }
      ],
      "payable": false,
      "stateMutability": "nonpayable",
      "type": "constructor"
    },
    {
      "payable": true,
      "stateMutability": "payable",
      "type": "fallback"
    },
    {
      "anonymous": false,
      "inputs": [
        {
          "indexed": false,
          "name": "from",
          "type": "address"
        },
        {
          "indexed": false,
          "name": "to",
          "type": "address"
        },
        {
          "indexed": false,
          "name": "amount",
          "type": "uint256"
        }
      ],
      "name": "AccreditiveConfirmed",
      "type": "event"
    },
    {
      "anonymous": false,
      "inputs": [
        {
          "indexed": false,
          "name": "customer",
          "type": "address"
        },
        {
          "indexed": false,
          "name": "supplier",
          "type": "address"
        }
      ],
      "name": "AccreditiveCancelled",
      "type": "event"
    },
    {
      "constant": true,
      "inputs": [],
      "name": "getBalance",
      "outputs": [
        {
          "name": "",
          "type": "uint256"
        }
      ],
      "payable": false,
      "stateMutability": "view",
      "type": "function"
    },
    {
      "constant": false,
      "inputs": [
        {
          "name": "reciever",
          "type": "address"
        },
        {
          "name": "accreditiveAmount",
          "type": "uint256"
        }
      ],
      "name": "openAccreditive",
      "outputs": [],
      "payable": false,
      "stateMutability": "nonpayable",
      "type": "function"
    },
    {
      "constant": false,
      "inputs": [
        {
          "name": "reciever",
          "type": "address"
        }
      ],
      "name": "dutyStatusChange",
      "outputs": [],
      "payable": false,
      "stateMutability": "nonpayable",
      "type": "function"
    },
    {
      "constant": false,
      "inputs": [
        {
          "name": "reciever",
          "type": "address"
        }
      ],
      "name": "closeAccreditive",
      "outputs": [],
      "payable": false,
      "stateMutability": "nonpayable",
      "type": "function"
    },
    {
      "constant": false,
      "inputs": [
        {
          "name": "from",
          "type": "address"
        },
        {
          "name": "to",
          "type": "address"
        },
        {
          "name": "amount",
          "type": "uint256"
        }
      ],
      "name": "transferAccreditive",
      "outputs": [],
      "payable": false,
      "stateMutability": "nonpayable",
      "type": "function"
    },
    {
      "constant": false,
      "inputs": [],
      "name": "collectFees",
      "outputs": [],
      "payable": false,
      "stateMutability": "nonpayable",
      "type": "function"
    }
  ],
  "bytecode": "0x608060405234801561001057600080fd5b5060405160208061110b8339810180604052810190808051906020019092919050505033600360006101000a81548173ffffffffffffffffffffffffffffffffffffffff021916908373ffffffffffffffffffffffffffffffffffffffff1602179055506000806000600360009054906101000a900473ffffffffffffffffffffffffffffffffffffffff1673ffffffffffffffffffffffffffffffffffffffff1673ffffffffffffffffffffffffffffffffffffffff16815260200190815260200160002081905550806002819055505061101a806100f16000396000f30060806040526004361061008e576000357c0100000000000000000000000000000000000000000000000000000000900463ffffffff16806312065fe0146100d357806327e235e3146100fe57806335b3afce146101555780633beb9925146101c257806362ceefc314610244578063bb17bf2514610287578063c8796572146102d4578063db056063146102eb575b346000803373ffffffffffffffffffffffffffffffffffffffff1673ffffffffffffffffffffffffffffffffffffffff16815260200190815260200160002081905550005b3480156100df57600080fd5b506100e861032e565b6040518082815260200191505060405180910390f35b34801561010a57600080fd5b5061013f600480360381019080803573ffffffffffffffffffffffffffffffffffffffff169060200190929190505050610374565b6040518082815260200191505060405180910390f35b34801561016157600080fd5b506101c0600480360381019080803573ffffffffffffffffffffffffffffffffffffffff169060200190929190803573ffffffffffffffffffffffffffffffffffffffff1690602001909291908035906020019092919050505061038c565b005b3480156101ce57600080fd5b50610223600480360381019080803573ffffffffffffffffffffffffffffffffffffffff169060200190929190803573ffffffffffffffffffffffffffffffffffffffff169060200190929190505050610830565b60405180831515151581526020018281526020019250505060405180910390f35b34801561025057600080fd5b50610285600480360381019080803573ffffffffffffffffffffffffffffffffffffffff16906020019092919050505061086e565b005b34801561029357600080fd5b506102d2600480360381019080803573ffffffffffffffffffffffffffffffffffffffff16906020019092919080359060200190929190505050610ab4565b005b3480156102e057600080fd5b506102e9610c65565b005b3480156102f757600080fd5b5061032c600480360381019080803573ffffffffffffffffffffffffffffffffffffffff169060200190929190505050610d8c565b005b60008060003373ffffffffffffffffffffffffffffffffffffffff1673ffffffffffffffffffffffffffffffffffffffff16815260200190815260200160002054905090565b60006020528060005260406000206000915090505481565b80600160008573ffffffffffffffffffffffffffffffffffffffff1673ffffffffffffffffffffffffffffffffffffffff16815260200190815260200160002060008473ffffffffffffffffffffffffffffffffffffffff1673ffffffffffffffffffffffffffffffffffffffff168152602001908152602001600020600101541480156104aa575060011515600160008573ffffffffffffffffffffffffffffffffffffffff1673ffffffffffffffffffffffffffffffffffffffff16815260200190815260200160002060008473ffffffffffffffffffffffffffffffffffffffff1673ffffffffffffffffffffffffffffffffffffffff16815260200190815260200160002060000160009054906101000a900460ff161515145b15156104b557600080fd5b610506816000808573ffffffffffffffffffffffffffffffffffffffff1673ffffffffffffffffffffffffffffffffffffffff16815260200190815260200160002054610f4490919063ffffffff16565b6000808473ffffffffffffffffffffffffffffffffffffffff1673ffffffffffffffffffffffffffffffffffffffff16815260200190815260200160002081905550610599816000808673ffffffffffffffffffffffffffffffffffffffff1673ffffffffffffffffffffffffffffffffffffffff16815260200190815260200160002054610f6590919063ffffffff16565b6000808573ffffffffffffffffffffffffffffffffffffffff1673ffffffffffffffffffffffffffffffffffffffff168152602001908152602001600020819055506000600160008573ffffffffffffffffffffffffffffffffffffffff1673ffffffffffffffffffffffffffffffffffffffff16815260200190815260200160002060008473ffffffffffffffffffffffffffffffffffffffff1673ffffffffffffffffffffffffffffffffffffffff16815260200190815260200160002060000160006101000a81548160ff0219169083151502179055506106eb61069e606461069060025485610f8690919063ffffffff16565b610fc490919063ffffffff16565b6000808573ffffffffffffffffffffffffffffffffffffffff1673ffffffffffffffffffffffffffffffffffffffff16815260200190815260200160002054610f6590919063ffffffff16565b6000808473ffffffffffffffffffffffffffffffffffffffff1673ffffffffffffffffffffffffffffffffffffffff168152602001908152602001600020819055506107c7610758606461074a60025485610f8690919063ffffffff16565b610fc490919063ffffffff16565b600080600360009054906101000a900473ffffffffffffffffffffffffffffffffffffffff1673ffffffffffffffffffffffffffffffffffffffff1673ffffffffffffffffffffffffffffffffffffffff16815260200190815260200160002054610f4490919063ffffffff16565b600080600360009054906101000a900473ffffffffffffffffffffffffffffffffffffffff1673ffffffffffffffffffffffffffffffffffffffff1673ffffffffffffffffffffffffffffffffffffffff16815260200190815260200160002081905550505050565b6001602052816000526040600020602052806000526040600020600091509150508060000160009054906101000a900460ff16908060010154905082565b6000600160003373ffffffffffffffffffffffffffffffffffffffff1673ffffffffffffffffffffffffffffffffffffffff16815260200190815260200160002060008373ffffffffffffffffffffffffffffffffffffffff1673ffffffffffffffffffffffffffffffffffffffff16815260200190815260200160002060010154141515156108fd57600080fd5b6000600160003373ffffffffffffffffffffffffffffffffffffffff1673ffffffffffffffffffffffffffffffffffffffff16815260200190815260200160002060008373ffffffffffffffffffffffffffffffffffffffff1673ffffffffffffffffffffffffffffffffffffffff168152602001908152602001600020600101819055506000600160003373ffffffffffffffffffffffffffffffffffffffff1673ffffffffffffffffffffffffffffffffffffffff16815260200190815260200160002060008373ffffffffffffffffffffffffffffffffffffffff1673ffffffffffffffffffffffffffffffffffffffff16815260200190815260200160002060000160006101000a81548160ff0219169083151502179055507f883438b0ca7843ba7cb95f10d48aaf0e9c46a9174d2d565fe1fe8eb42572f9123382604051808373ffffffffffffffffffffffffffffffffffffffff1673ffffffffffffffffffffffffffffffffffffffff1681526020018273ffffffffffffffffffffffffffffffffffffffff1673ffffffffffffffffffffffffffffffffffffffff1681526020019250505060405180910390a150565b610b4681600160003373ffffffffffffffffffffffffffffffffffffffff1673ffffffffffffffffffffffffffffffffffffffff16815260200190815260200160002060008573ffffffffffffffffffffffffffffffffffffffff1673ffffffffffffffffffffffffffffffffffffffff16815260200190815260200160002060010154610f4490919063ffffffff16565b600160003373ffffffffffffffffffffffffffffffffffffffff1673ffffffffffffffffffffffffffffffffffffffff16815260200190815260200160002060008473ffffffffffffffffffffffffffffffffffffffff1673ffffffffffffffffffffffffffffffffffffffff168152602001908152602001600020600101819055506000600160003373ffffffffffffffffffffffffffffffffffffffff1673ffffffffffffffffffffffffffffffffffffffff16815260200190815260200160002060008473ffffffffffffffffffffffffffffffffffffffff1673ffffffffffffffffffffffffffffffffffffffff16815260200190815260200160002060000160006101000a81548160ff0219169083151502179055505050565b600360009054906101000a900473ffffffffffffffffffffffffffffffffffffffff1673ffffffffffffffffffffffffffffffffffffffff163373ffffffffffffffffffffffffffffffffffffffff16141515610cc157600080fd5b600360009054906101000a900473ffffffffffffffffffffffffffffffffffffffff1673ffffffffffffffffffffffffffffffffffffffff166108fc600080600360009054906101000a900473ffffffffffffffffffffffffffffffffffffffff1673ffffffffffffffffffffffffffffffffffffffff1673ffffffffffffffffffffffffffffffffffffffff168152602001908152602001600020549081150290604051600060405180830381858888f19350505050158015610d89573d6000803e3d6000fd5b50565b60018060003373ffffffffffffffffffffffffffffffffffffffff1673ffffffffffffffffffffffffffffffffffffffff16815260200190815260200160002060008373ffffffffffffffffffffffffffffffffffffffff1673ffffffffffffffffffffffffffffffffffffffff16815260200190815260200160002060000160006101000a81548160ff0219169083151502179055507f03d278c64b1b41585fe129d2c941c525718eefb4b4b8b7d3848db3e76360712f3382600160003373ffffffffffffffffffffffffffffffffffffffff1673ffffffffffffffffffffffffffffffffffffffff16815260200190815260200160002060008573ffffffffffffffffffffffffffffffffffffffff1673ffffffffffffffffffffffffffffffffffffffff16815260200190815260200160002060010154604051808473ffffffffffffffffffffffffffffffffffffffff1673ffffffffffffffffffffffffffffffffffffffff1681526020018373ffffffffffffffffffffffffffffffffffffffff1673ffffffffffffffffffffffffffffffffffffffff168152602001828152602001935050505060405180910390a150565b6000808284019050838110151515610f5b57600080fd5b8091505092915050565b600080828410151515610f7757600080fd5b82840390508091505092915050565b6000806000841415610f9b5760009150610fbd565b8284029050828482811515610fac57fe5b04141515610fb957600080fd5b8091505b5092915050565b600080600083111515610fd657600080fd5b8284811515610fe157fe5b04905080915050929150505600a165627a7a72305820d90969b43a704955f1ffcc74ac43d5fe6fadb8c27ac2873537744cdcfc524fec0029",
  "source": "pragma solidity ^\"0.4.24\";\r\n\r\nimport \"./SafeMath.sol\";\r\n\r\n\r\n/**\r\n* @title Accreditive\r\n* @dev Base accreditive contract, an implemetation of a bank accreditive mechanism,\r\n* but without financial intermediaries. Can be/should be modified on personal/specific purposes.\r\n*/\r\ncontract LetterOfCredit{\r\n    using SafeMath for uint;\r\n    mapping (address => uint) public balances;\r\n    mapping (address => mapping(address => supplier)) public supplierState;\r\n    uint fee;\r\n    address owner;\r\n\r\n\r\n    struct supplier{\r\n        bool dutyFulfilled;\r\n        uint treatyPrice;\r\n    }\r\n\r\n    event AccreditiveConfirmed(address from, address to, uint amount);\r\n    event AccreditiveCancelled(address customer, address supplier);\r\n\r\n    modifier owned() {\r\n        require(msg.sender == owner);\r\n        _;\r\n    }\r\n\r\n    constructor(uint feePercent) public {\r\n        owner = msg.sender;\r\n        balances[owner] = 0;\r\n        fee = feePercent;\r\n        }\r\n    \r\n    function() external payable{\r\n        balances[msg.sender] = msg.value;\r\n    }\r\n\r\n    function getBalance() view external returns (uint) {return balances[msg.sender];}\r\n\r\n    function openAccreditive(address reciever, uint accreditiveAmount) external {\r\n        supplierState[msg.sender][reciever].treatyPrice = supplierState[msg.sender][reciever].treatyPrice.add(accreditiveAmount);\r\n        supplierState[msg.sender][reciever].dutyFulfilled = false;\r\n    }\r\n\r\n    //Confrimation, sent by accreditive opener after recieving products from supplier\r\n    function dutyStatusChange(address reciever) external {\r\n        supplierState[msg.sender][reciever].dutyFulfilled = true;\r\n        emit AccreditiveConfirmed(msg.sender, reciever, supplierState[msg.sender][reciever].treatyPrice);\r\n    }\r\n    \r\n    //In case of customer refusing the agreement\r\n    function closeAccreditive(address reciever) external {\r\n        require(supplierState[msg.sender][reciever].treatyPrice != 0);\r\n        supplierState[msg.sender][reciever].treatyPrice = 0;\r\n        supplierState[msg.sender][reciever].dutyFulfilled = false;\r\n        emit AccreditiveCancelled(msg.sender, reciever);              \r\n    }\r\n\r\n    function transferAccreditive(address from, address to, uint amount) external {\r\n        require(supplierState[from][to].treatyPrice == amount && supplierState[from][to].dutyFulfilled == true);\r\n        balances[to] = balances[to].add(amount);\r\n        balances[from] = balances[from].sub(amount);\r\n        supplierState[from][to].dutyFulfilled = false;\r\n    // Fees paid to contract deployer\r\n        balances[to] = balances[to].sub(amount.mul(fee).div(100));\r\n        balances[owner] = balances[owner].add(amount.mul(fee).div(100));\r\n    }\r\n\r\n    function collectFees() external owned {\r\n        owner.transfer(balances[owner]);\r\n    }\r\n\r\n}",
  "sourcePath": "C:\\Users\\Сабаун\\Solidity\\EduProjects\\LetterOfCredit\\contracts\\LetterOfCredit.sol",
  "compiler": {
    "name": "solc",
    "version": "0.4.24+commit.e67f0147.Emscripten.clang"
  },
  "schemaVersion": "2.0.1",
  "updatedAt": "2018-09-13T14:02:38.144Z"
}